{
  "contractName": "Wallet",
  "abi": [
    {
      "inputs": [
        {
          "internalType": "address[]",
          "name": "_approvers",
          "type": "address[]"
        },
        {
          "internalType": "uint256",
          "name": "_quorum",
          "type": "uint256"
        }
      ],
      "stateMutability": "nonpayable",
      "type": "constructor"
    },
    {
      "inputs": [
        {
          "internalType": "address",
          "name": "",
          "type": "address"
        },
        {
          "internalType": "uint256",
          "name": "",
          "type": "uint256"
        }
      ],
      "name": "approvals",
      "outputs": [
        {
          "internalType": "bool",
          "name": "",
          "type": "bool"
        }
      ],
      "stateMutability": "view",
      "type": "function"
    },
    {
      "inputs": [
        {
          "internalType": "uint256",
          "name": "",
          "type": "uint256"
        }
      ],
      "name": "approvers",
      "outputs": [
        {
          "internalType": "address",
          "name": "",
          "type": "address"
        }
      ],
      "stateMutability": "view",
      "type": "function"
    },
    {
      "inputs": [],
      "name": "nextId",
      "outputs": [
        {
          "internalType": "uint256",
          "name": "",
          "type": "uint256"
        }
      ],
      "stateMutability": "view",
      "type": "function"
    },
    {
      "inputs": [],
      "name": "quorum",
      "outputs": [
        {
          "internalType": "uint256",
          "name": "",
          "type": "uint256"
        }
      ],
      "stateMutability": "view",
      "type": "function"
    },
    {
      "inputs": [
        {
          "internalType": "uint256",
          "name": "",
          "type": "uint256"
        }
      ],
      "name": "transfers",
      "outputs": [
        {
          "internalType": "uint256",
          "name": "id",
          "type": "uint256"
        },
        {
          "internalType": "uint256",
          "name": "amount",
          "type": "uint256"
        },
        {
          "internalType": "address payable",
          "name": "to",
          "type": "address"
        },
        {
          "internalType": "uint256",
          "name": "approvals",
          "type": "uint256"
        },
        {
          "internalType": "bool",
          "name": "sent",
          "type": "bool"
        }
      ],
      "stateMutability": "view",
      "type": "function"
    },
    {
      "stateMutability": "payable",
      "type": "receive"
    },
    {
      "inputs": [],
      "name": "getApprovers",
      "outputs": [
        {
          "internalType": "address[]",
          "name": "",
          "type": "address[]"
        }
      ],
      "stateMutability": "view",
      "type": "function"
    },
    {
      "inputs": [],
      "name": "getTransfers",
      "outputs": [
        {
          "components": [
            {
              "internalType": "uint256",
              "name": "id",
              "type": "uint256"
            },
            {
              "internalType": "uint256",
              "name": "amount",
              "type": "uint256"
            },
            {
              "internalType": "address payable",
              "name": "to",
              "type": "address"
            },
            {
              "internalType": "uint256",
              "name": "approvals",
              "type": "uint256"
            },
            {
              "internalType": "bool",
              "name": "sent",
              "type": "bool"
            }
          ],
          "internalType": "struct Wallet.Transfer[]",
          "name": "",
          "type": "tuple[]"
        }
      ],
      "stateMutability": "view",
      "type": "function"
    },
    {
      "inputs": [
        {
          "internalType": "uint256",
          "name": "amount",
          "type": "uint256"
        },
        {
          "internalType": "address payable",
          "name": "to",
          "type": "address"
        }
      ],
      "name": "createTransfer",
      "outputs": [],
      "stateMutability": "nonpayable",
      "type": "function"
    },
    {
      "inputs": [
        {
          "internalType": "uint256",
          "name": "id",
          "type": "uint256"
        }
      ],
      "name": "approveTransfer",
      "outputs": [],
      "stateMutability": "nonpayable",
      "type": "function"
    }
  ],
  "bytecode": "0x60806040523480156200001157600080fd5b506040516200158338038062001583833981810160405281019062000037919062000336565b81600090805190602001906200004f9291906200005f565b508060018190555050506200039c565b828054828255906000526020600020908101928215620000db579160200282015b82811115620000da5782518260006101000a81548173ffffffffffffffffffffffffffffffffffffffff021916908373ffffffffffffffffffffffffffffffffffffffff1602179055509160200191906001019062000080565b5b509050620000ea9190620000ee565b5090565b5b8082111562000109576000816000905550600101620000ef565b5090565b6000604051905090565b600080fd5b600080fd5b600080fd5b6000601f19601f8301169050919050565b7f4e487b7100000000000000000000000000000000000000000000000000000000600052604160045260246000fd5b620001718262000126565b810181811067ffffffffffffffff8211171562000193576200019262000137565b5b80604052505050565b6000620001a86200010d565b9050620001b6828262000166565b919050565b600067ffffffffffffffff821115620001d957620001d862000137565b5b602082029050602081019050919050565b600080fd5b600073ffffffffffffffffffffffffffffffffffffffff82169050919050565b60006200021c82620001ef565b9050919050565b6200022e816200020f565b81146200023a57600080fd5b50565b6000815190506200024e8162000223565b92915050565b60006200026b6200026584620001bb565b6200019c565b90508083825260208201905060208402830185811115620002915762000290620001ea565b5b835b81811015620002be5780620002a988826200023d565b84526020840193505060208101905062000293565b5050509392505050565b600082601f830112620002e057620002df62000121565b5b8151620002f284826020860162000254565b91505092915050565b6000819050919050565b6200031081620002fb565b81146200031c57600080fd5b50565b600081519050620003308162000305565b92915050565b6000806040838503121562000350576200034f62000117565b5b600083015167ffffffffffffffff8111156200037157620003706200011c565b5b6200037f85828601620002c8565b925050602062000392858286016200031f565b9150509250929050565b6111d780620003ac6000396000f3fe60806040526004361061008a5760003560e01c80636cb3e8ef116100595780636cb3e8ef146101405780639377d7111461016b578063cacca4a0146101ac578063d3650fb8146101d5578063ffabc6731461021257610091565b80631703a018146100965780632f65142c146100c15780634c12fa47146100ec57806361b8ce8c1461011557610091565b3661009157005b600080fd5b3480156100a257600080fd5b506100ab61024f565b6040516100b89190610ab2565b60405180910390f35b3480156100cd57600080fd5b506100d6610255565b6040516100e39190610c4f565b60405180910390f35b3480156100f857600080fd5b50610113600480360381019061010e9190610cce565b610343565b005b34801561012157600080fd5b5061012a610532565b6040516101379190610ab2565b60405180910390f35b34801561014c57600080fd5b50610155610538565b6040516101629190610dde565b60405180910390f35b34801561017757600080fd5b50610192600480360381019061018d9190610e00565b6105c6565b6040516101a3959493929190610e4b565b60405180910390f35b3480156101b857600080fd5b506101d360048036038101906101ce9190610e00565b610639565b005b3480156101e157600080fd5b506101fc60048036038101906101f79190610e00565b610a2b565b6040516102099190610ead565b60405180910390f35b34801561021e57600080fd5b5061023960048036038101906102349190610ef4565b610a6a565b6040516102469190610f34565b60405180910390f35b60015481565b60606002805480602002602001604051908101604052809291908181526020016000905b8282101561033a57838290600052602060002090600502016040518060a001604052908160008201548152602001600182015481526020016002820160009054906101000a900473ffffffffffffffffffffffffffffffffffffffff1673ffffffffffffffffffffffffffffffffffffffff1673ffffffffffffffffffffffffffffffffffffffff168152602001600382015481526020016004820160009054906101000a900460ff16151515158152505081526020019060010190610279565b50505050905090565b6000805b6000805490508110156103de573373ffffffffffffffffffffffffffffffffffffffff166000828154811061037f5761037e610f4f565b5b9060005260206000200160009054906101000a900473ffffffffffffffffffffffffffffffffffffffff1673ffffffffffffffffffffffffffffffffffffffff1614156103cb57600191505b80806103d690610fad565b915050610347565b506001151581151514610426576040517f08c379a000000000000000000000000000000000000000000000000000000000815260040161041d90611053565b60405180910390fd5b6040518060a0016040528060045481526020018481526020018373ffffffffffffffffffffffffffffffffffffffff168152602001600081526020016000151581525060026004548154811061047f5761047e610f4f565b5b9060005260206000209060050201600082015181600001556020820151816001015560408201518160020160006101000a81548173ffffffffffffffffffffffffffffffffffffffff021916908373ffffffffffffffffffffffffffffffffffffffff1602179055506060820151816003015560808201518160040160006101000a81548160ff0219169083151502179055509050506004600081548092919061052890610fad565b9190505550505050565b60045481565b606060008054806020026020016040519081016040528092919081815260200182805480156105bc57602002820191906000526020600020905b8160009054906101000a900473ffffffffffffffffffffffffffffffffffffffff1673ffffffffffffffffffffffffffffffffffffffff1681526020019060010190808311610572575b5050505050905090565b600281815481106105d657600080fd5b90600052602060002090600502016000915090508060000154908060010154908060020160009054906101000a900473ffffffffffffffffffffffffffffffffffffffff16908060030154908060040160009054906101000a900460ff16905085565b6000805b6000805490508110156106d4573373ffffffffffffffffffffffffffffffffffffffff166000828154811061067557610674610f4f565b5b9060005260206000200160009054906101000a900473ffffffffffffffffffffffffffffffffffffffff1673ffffffffffffffffffffffffffffffffffffffff1614156106c157600191505b80806106cc90610fad565b91505061063d565b50600115158115151461071c576040517f08c379a000000000000000000000000000000000000000000000000000000000815260040161071390611053565b60405180910390fd5b600015156002838154811061073457610733610f4f565b5b906000526020600020906005020160040160009054906101000a900460ff16151514610795576040517f08c379a000000000000000000000000000000000000000000000000000000000815260040161078c906110bf565b60405180910390fd5b60001515600360003373ffffffffffffffffffffffffffffffffffffffff1673ffffffffffffffffffffffffffffffffffffffff168152602001908152602001600020600084815260200190815260200160002060009054906101000a900460ff16151514610839576040517f08c379a00000000000000000000000000000000000000000000000000000000081526004016108309061112b565b60405180910390fd5b6001600360003373ffffffffffffffffffffffffffffffffffffffff1673ffffffffffffffffffffffffffffffffffffffff168152602001908152602001600020600084815260200190815260200160002060006101000a81548160ff0219169083151502179055506001600283815481106108b8576108b7610f4f565b5b9060005260206000209060050201600301546108d4919061114b565b600283815481106108e8576108e7610f4f565b5b9060005260206000209060050201600301819055506001546002838154811061091457610913610f4f565b5b90600052602060002090600502016003015410610a275760016002838154811061094157610940610f4f565b5b906000526020600020906005020160040160006101000a81548160ff02191690831515021790555060006002838154811061097f5761097e610f4f565b5b906000526020600020906005020160020160009054906101000a900473ffffffffffffffffffffffffffffffffffffffff1690506000600284815481106109c9576109c8610f4f565b5b90600052602060002090600502016001015490508173ffffffffffffffffffffffffffffffffffffffff166108fc829081150290604051600060405180830381858888f19350505050158015610a23573d6000803e3d6000fd5b5050505b5050565b60008181548110610a3b57600080fd5b906000526020600020016000915054906101000a900473ffffffffffffffffffffffffffffffffffffffff1681565b60036020528160005260406000206020528060005260406000206000915091509054906101000a900460ff1681565b6000819050919050565b610aac81610a99565b82525050565b6000602082019050610ac76000830184610aa3565b92915050565b600081519050919050565b600082825260208201905092915050565b6000819050602082019050919050565b610b0281610a99565b82525050565b600073ffffffffffffffffffffffffffffffffffffffff82169050919050565b6000610b3382610b08565b9050919050565b610b4381610b28565b82525050565b60008115159050919050565b610b5e81610b49565b82525050565b60a082016000820151610b7a6000850182610af9565b506020820151610b8d6020850182610af9565b506040820151610ba06040850182610b3a565b506060820151610bb36060850182610af9565b506080820151610bc66080850182610b55565b50505050565b6000610bd88383610b64565b60a08301905092915050565b6000602082019050919050565b6000610bfc82610acd565b610c068185610ad8565b9350610c1183610ae9565b8060005b83811015610c42578151610c298882610bcc565b9750610c3483610be4565b925050600181019050610c15565b5085935050505092915050565b60006020820190508181036000830152610c698184610bf1565b905092915050565b600080fd5b610c7f81610a99565b8114610c8a57600080fd5b50565b600081359050610c9c81610c76565b92915050565b610cab81610b28565b8114610cb657600080fd5b50565b600081359050610cc881610ca2565b92915050565b60008060408385031215610ce557610ce4610c71565b5b6000610cf385828601610c8d565b9250506020610d0485828601610cb9565b9150509250929050565b600081519050919050565b600082825260208201905092915050565b6000819050602082019050919050565b6000610d4582610b08565b9050919050565b610d5581610d3a565b82525050565b6000610d678383610d4c565b60208301905092915050565b6000602082019050919050565b6000610d8b82610d0e565b610d958185610d19565b9350610da083610d2a565b8060005b83811015610dd1578151610db88882610d5b565b9750610dc383610d73565b925050600181019050610da4565b5085935050505092915050565b60006020820190508181036000830152610df88184610d80565b905092915050565b600060208284031215610e1657610e15610c71565b5b6000610e2484828501610c8d565b91505092915050565b610e3681610b28565b82525050565b610e4581610b49565b82525050565b600060a082019050610e606000830188610aa3565b610e6d6020830187610aa3565b610e7a6040830186610e2d565b610e876060830185610aa3565b610e946080830184610e3c565b9695505050505050565b610ea781610d3a565b82525050565b6000602082019050610ec26000830184610e9e565b92915050565b610ed181610d3a565b8114610edc57600080fd5b50565b600081359050610eee81610ec8565b92915050565b60008060408385031215610f0b57610f0a610c71565b5b6000610f1985828601610edf565b9250506020610f2a85828601610c8d565b9150509250929050565b6000602082019050610f496000830184610e3c565b92915050565b7f4e487b7100000000000000000000000000000000000000000000000000000000600052603260045260246000fd5b7f4e487b7100000000000000000000000000000000000000000000000000000000600052601160045260246000fd5b6000610fb882610a99565b91507fffffffffffffffffffffffffffffffffffffffffffffffffffffffffffffffff821415610feb57610fea610f7e565b5b600182019050919050565b600082825260208201905092915050565b7f4f6e6c7920417070726f76657220416c6c6f7765640000000000000000000000600082015250565b600061103d601583610ff6565b915061104882611007565b602082019050919050565b6000602082019050818103600083015261106c81611030565b9050919050565b7f5472616e736665722068617320616c7265616479206265656e2073656e740000600082015250565b60006110a9601e83610ff6565b91506110b482611073565b602082019050919050565b600060208201905081810360008301526110d88161109c565b9050919050565b7f43616e6e6f7420617070726f7665207472616e73666572207477696365000000600082015250565b6000611115601d83610ff6565b9150611120826110df565b602082019050919050565b6000602082019050818103600083015261114481611108565b9050919050565b600061115682610a99565b915061116183610a99565b9250827fffffffffffffffffffffffffffffffffffffffffffffffffffffffffffffffff0382111561119657611195610f7e565b5b82820190509291505056fea26469706673582212201c4820623c101aebcd475494d38e130e80dd63ea413454e108f8b838aa4524a164736f6c63430008090033",
  "immutableReferences": {},
  "source": "// SPDX-License-Identifier: GPL-3.0\n\npragma solidity >=0.7.0 <0.9.0;\npragma experimental ABIEncoderV2;\n\ncontract Wallet {\n\n    address[] public approvers;\n    uint public quorum;\n\n    struct Transfer {\n        uint id;\n        uint amount;\n        address payable to;\n        uint approvals;\n        bool sent;\n    }\n    Transfer[] public transfers;\n\n\n    mapping(address => mapping(uint => bool)) public approvals;\n    uint public nextId;\n\n    constructor(address[] memory _approvers, uint _quorum) {\n        approvers = _approvers;\n        quorum = _quorum;\n    }\n\n    function getApprovers() external view returns(address[] memory) {\n        return approvers;\n    }\n\n    function getTransfers() external view returns(Transfer[] memory) {\n        return transfers;\n    }\n\n    function createTransfer(uint amount, address payable to) external onlyApprover(){\n        transfers[nextId] = Transfer(\n            nextId,\n            amount,\n            to,\n            0,\n            false\n        );\n        nextId++;\n    }\n\n    function approveTransfer(uint id) external onlyApprover(){\n        require(transfers[id].sent == false, \"Transfer has already been sent\");\n        require(approvals[msg.sender][id] == false, \"Cannot approve transfer twice\");\n\n        approvals[msg.sender][id] = true;\n        transfers[id].approvals = transfers[id].approvals + 1;\n\n        if(transfers[id].approvals >= quorum) {\n            transfers[id].sent = true;\n            address payable to = transfers[id].to;\n            uint amount = transfers[id].amount;\n            to.transfer(amount);\n        }\n    }\n\n    receive() external payable {}\n\n    modifier onlyApprover() {\n        bool allowed = false;\n        for(uint i = 0; i < approvers.length; i++) {\n            if(approvers[i] == msg.sender) {\n                allowed = true;\n            }\n        }\n        require(allowed == true, \"Only Approver Allowed\");\n        _;\n    }\n}",
  "sourcePath": "/Users/jeetanshu/Documents/blockchain/contracts/Wallet/contracts/Wallet.sol",
  "compiler": {
    "name": "solc",
    "version": "0.8.9+commit.e5eed63a.Emscripten.clang"
  },
  "schemaVersion": "3.4.3",
  "updatedAt": "2022-05-03T06:36:32.928Z",
  "devdoc": {
    "kind": "dev",
    "methods": {},
    "version": 1
  },
  "userdoc": {
    "kind": "user",
    "methods": {},
    "version": 1
  }
}